{
  "_format": "hh-sol-artifact-1",
  "contractName": "NFTCollection",
  "sourceName": "contracts/NFTCollection.sol",
  "abi": [
    {
      "inputs": [
        {
          "internalType": "address",
          "name": "_signer",
          "type": "address"
        },
        {
          "internalType": "address",
          "name": "_usdcAddress",
          "type": "address"
        }
      ],
      "stateMutability": "nonpayable",
      "type": "constructor"
    },
    {
      "inputs": [],
      "name": "ECDSAInvalidSignature",
      "type": "error"
    },
    {
      "inputs": [
        {
          "internalType": "uint256",
          "name": "length",
          "type": "uint256"
        }
      ],
      "name": "ECDSAInvalidSignatureLength",
      "type": "error"
    },
    {
      "inputs": [
        {
          "internalType": "bytes32",
          "name": "s",
          "type": "bytes32"
        }
      ],
      "name": "ECDSAInvalidSignatureS",
      "type": "error"
    },
    {
      "inputs": [
        {
          "internalType": "address",
          "name": "sender",
          "type": "address"
        },
        {
          "internalType": "uint256",
          "name": "tokenId",
          "type": "uint256"
        },
        {
          "internalType": "address",
          "name": "owner",
          "type": "address"
        }
      ],
      "name": "ERC721IncorrectOwner",
      "type": "error"
    },
    {
      "inputs": [
        {
          "internalType": "address",
          "name": "operator",
          "type": "address"
        },
        {
          "internalType": "uint256",
          "name": "tokenId",
          "type": "uint256"
        }
      ],
      "name": "ERC721InsufficientApproval",
      "type": "error"
    },
    {
      "inputs": [
        {
          "internalType": "address",
          "name": "approver",
          "type": "address"
        }
      ],
      "name": "ERC721InvalidApprover",
      "type": "error"
    },
    {
      "inputs": [
        {
          "internalType": "address",
          "name": "operator",
          "type": "address"
        }
      ],
      "name": "ERC721InvalidOperator",
      "type": "error"
    },
    {
      "inputs": [
        {
          "internalType": "address",
          "name": "owner",
          "type": "address"
        }
      ],
      "name": "ERC721InvalidOwner",
      "type": "error"
    },
    {
      "inputs": [
        {
          "internalType": "address",
          "name": "receiver",
          "type": "address"
        }
      ],
      "name": "ERC721InvalidReceiver",
      "type": "error"
    },
    {
      "inputs": [
        {
          "internalType": "address",
          "name": "sender",
          "type": "address"
        }
      ],
      "name": "ERC721InvalidSender",
      "type": "error"
    },
    {
      "inputs": [
        {
          "internalType": "uint256",
          "name": "tokenId",
          "type": "uint256"
        }
      ],
      "name": "ERC721NonexistentToken",
      "type": "error"
    },
    {
      "inputs": [],
      "name": "InvalidShortString",
      "type": "error"
    },
    {
      "inputs": [
        {
          "internalType": "address",
          "name": "owner",
          "type": "address"
        }
      ],
      "name": "OwnableInvalidOwner",
      "type": "error"
    },
    {
      "inputs": [
        {
          "internalType": "address",
          "name": "account",
          "type": "address"
        }
      ],
      "name": "OwnableUnauthorizedAccount",
      "type": "error"
    },
    {
      "inputs": [
        {
          "internalType": "string",
          "name": "str",
          "type": "string"
        }
      ],
      "name": "StringTooLong",
      "type": "error"
    },
    {
      "anonymous": false,
      "inputs": [
        {
          "indexed": true,
          "internalType": "address",
          "name": "owner",
          "type": "address"
        },
        {
          "indexed": true,
          "internalType": "address",
          "name": "approved",
          "type": "address"
        },
        {
          "indexed": true,
          "internalType": "uint256",
          "name": "tokenId",
          "type": "uint256"
        }
      ],
      "name": "Approval",
      "type": "event"
    },
    {
      "anonymous": false,
      "inputs": [
        {
          "indexed": true,
          "internalType": "address",
          "name": "owner",
          "type": "address"
        },
        {
          "indexed": true,
          "internalType": "address",
          "name": "operator",
          "type": "address"
        },
        {
          "indexed": false,
          "internalType": "bool",
          "name": "approved",
          "type": "bool"
        }
      ],
      "name": "ApprovalForAll",
      "type": "event"
    },
    {
      "anonymous": false,
      "inputs": [
        {
          "indexed": false,
          "internalType": "uint256",
          "name": "_fromTokenId",
          "type": "uint256"
        },
        {
          "indexed": false,
          "internalType": "uint256",
          "name": "_toTokenId",
          "type": "uint256"
        }
      ],
      "name": "BatchMetadataUpdate",
      "type": "event"
    },
    {
      "anonymous": false,
      "inputs": [],
      "name": "EIP712DomainChanged",
      "type": "event"
    },
    {
      "anonymous": false,
      "inputs": [
        {
          "indexed": false,
          "internalType": "uint256",
          "name": "_tokenId",
          "type": "uint256"
        }
      ],
      "name": "MetadataUpdate",
      "type": "event"
    },
    {
      "anonymous": false,
      "inputs": [
        {
          "indexed": true,
          "internalType": "address",
          "name": "previousOwner",
          "type": "address"
        },
        {
          "indexed": true,
          "internalType": "address",
          "name": "newOwner",
          "type": "address"
        }
      ],
      "name": "OwnershipTransferred",
      "type": "event"
    },
    {
      "anonymous": false,
      "inputs": [
        {
          "indexed": false,
          "internalType": "enum NFTCollection.MintPhase",
          "name": "newPhase",
          "type": "uint8"
        }
      ],
      "name": "PhaseChanged",
      "type": "event"
    },
    {
      "anonymous": false,
      "inputs": [
        {
          "indexed": true,
          "internalType": "address",
          "name": "minter",
          "type": "address"
        },
        {
          "indexed": false,
          "internalType": "uint256",
          "name": "tokenId",
          "type": "uint256"
        }
      ],
      "name": "PublicMinted",
      "type": "event"
    },
    {
      "anonymous": false,
      "inputs": [
        {
          "indexed": true,
          "internalType": "address",
          "name": "newSigner",
          "type": "address"
        }
      ],
      "name": "SignerUpdated",
      "type": "event"
    },
    {
      "anonymous": false,
      "inputs": [
        {
          "indexed": true,
          "internalType": "address",
          "name": "from",
          "type": "address"
        },
        {
          "indexed": true,
          "internalType": "address",
          "name": "to",
          "type": "address"
        },
        {
          "indexed": true,
          "internalType": "uint256",
          "name": "tokenId",
          "type": "uint256"
        }
      ],
      "name": "Transfer",
      "type": "event"
    },
    {
      "anonymous": false,
      "inputs": [
        {
          "indexed": true,
          "internalType": "address",
          "name": "owner",
          "type": "address"
        },
        {
          "indexed": false,
          "internalType": "uint256",
          "name": "amount",
          "type": "uint256"
        }
      ],
      "name": "USDCWithdrawn",
      "type": "event"
    },
    {
      "anonymous": false,
      "inputs": [
        {
          "indexed": true,
          "internalType": "address",
          "name": "minter",
          "type": "address"
        },
        {
          "indexed": false,
          "internalType": "uint256",
          "name": "tokenId",
          "type": "uint256"
        }
      ],
      "name": "WhitelistMinted",
      "type": "event"
    },
    {
      "inputs": [],
      "name": "MINT_PRICE",
      "outputs": [
        {
          "internalType": "uint256",
          "name": "",
          "type": "uint256"
        }
      ],
      "stateMutability": "view",
      "type": "function"
    },
    {
      "inputs": [],
      "name": "USDC",
      "outputs": [
        {
          "internalType": "contract IERC20",
          "name": "",
          "type": "address"
        }
      ],
      "stateMutability": "view",
      "type": "function"
    },
    {
      "inputs": [
        {
          "internalType": "address",
          "name": "to",
          "type": "address"
        },
        {
          "internalType": "uint256",
          "name": "tokenId",
          "type": "uint256"
        }
      ],
      "name": "approve",
      "outputs": [],
      "stateMutability": "nonpayable",
      "type": "function"
    },
    {
      "inputs": [
        {
          "internalType": "address",
          "name": "owner",
          "type": "address"
        }
      ],
      "name": "balanceOf",
      "outputs": [
        {
          "internalType": "uint256",
          "name": "",
          "type": "uint256"
        }
      ],
      "stateMutability": "view",
      "type": "function"
    },
    {
      "inputs": [],
      "name": "currentPhase",
      "outputs": [
        {
          "internalType": "enum NFTCollection.MintPhase",
          "name": "",
          "type": "uint8"
        }
      ],
      "stateMutability": "view",
      "type": "function"
    },
    {
      "inputs": [],
      "name": "eip712Domain",
      "outputs": [
        {
          "internalType": "bytes1",
          "name": "fields",
          "type": "bytes1"
        },
        {
          "internalType": "string",
          "name": "name",
          "type": "string"
        },
        {
          "internalType": "string",
          "name": "version",
          "type": "string"
        },
        {
          "internalType": "uint256",
          "name": "chainId",
          "type": "uint256"
        },
        {
          "internalType": "address",
          "name": "verifyingContract",
          "type": "address"
        },
        {
          "internalType": "bytes32",
          "name": "salt",
          "type": "bytes32"
        },
        {
          "internalType": "uint256[]",
          "name": "extensions",
          "type": "uint256[]"
        }
      ],
      "stateMutability": "view",
      "type": "function"
    },
    {
      "inputs": [
        {
          "internalType": "uint256",
          "name": "tokenId",
          "type": "uint256"
        }
      ],
      "name": "getApproved",
      "outputs": [
        {
          "internalType": "address",
          "name": "",
          "type": "address"
        }
      ],
      "stateMutability": "view",
      "type": "function"
    },
    {
      "inputs": [
        {
          "internalType": "address",
          "name": "minter",
          "type": "address"
        }
      ],
      "name": "getNonce",
      "outputs": [
        {
          "internalType": "uint256",
          "name": "",
          "type": "uint256"
        }
      ],
      "stateMutability": "view",
      "type": "function"
    },
    {
      "inputs": [
        {
          "internalType": "address",
          "name": "owner",
          "type": "address"
        },
        {
          "internalType": "address",
          "name": "operator",
          "type": "address"
        }
      ],
      "name": "isApprovedForAll",
      "outputs": [
        {
          "internalType": "bool",
          "name": "",
          "type": "bool"
        }
      ],
      "stateMutability": "view",
      "type": "function"
    },
    {
      "inputs": [],
      "name": "name",
      "outputs": [
        {
          "internalType": "string",
          "name": "",
          "type": "string"
        }
      ],
      "stateMutability": "view",
      "type": "function"
    },
    {
      "inputs": [
        {
          "internalType": "address",
          "name": "",
          "type": "address"
        }
      ],
      "name": "nonces",
      "outputs": [
        {
          "internalType": "uint256",
          "name": "",
          "type": "uint256"
        }
      ],
      "stateMutability": "view",
      "type": "function"
    },
    {
      "inputs": [],
      "name": "owner",
      "outputs": [
        {
          "internalType": "address",
          "name": "",
          "type": "address"
        }
      ],
      "stateMutability": "view",
      "type": "function"
    },
    {
      "inputs": [
        {
          "internalType": "uint256",
          "name": "tokenId",
          "type": "uint256"
        }
      ],
      "name": "ownerOf",
      "outputs": [
        {
          "internalType": "address",
          "name": "",
          "type": "address"
        }
      ],
      "stateMutability": "view",
      "type": "function"
    },
    {
      "inputs": [
        {
          "internalType": "string",
          "name": "metadataURI",
          "type": "string"
        }
      ],
      "name": "publicMint",
      "outputs": [],
      "stateMutability": "nonpayable",
      "type": "function"
    },
    {
      "inputs": [],
      "name": "renounceOwnership",
      "outputs": [],
      "stateMutability": "nonpayable",
      "type": "function"
    },
    {
      "inputs": [
        {
          "internalType": "address",
          "name": "from",
          "type": "address"
        },
        {
          "internalType": "address",
          "name": "to",
          "type": "address"
        },
        {
          "internalType": "uint256",
          "name": "tokenId",
          "type": "uint256"
        }
      ],
      "name": "safeTransferFrom",
      "outputs": [],
      "stateMutability": "nonpayable",
      "type": "function"
    },
    {
      "inputs": [
        {
          "internalType": "address",
          "name": "from",
          "type": "address"
        },
        {
          "internalType": "address",
          "name": "to",
          "type": "address"
        },
        {
          "internalType": "uint256",
          "name": "tokenId",
          "type": "uint256"
        },
        {
          "internalType": "bytes",
          "name": "data",
          "type": "bytes"
        }
      ],
      "name": "safeTransferFrom",
      "outputs": [],
      "stateMutability": "nonpayable",
      "type": "function"
    },
    {
      "inputs": [
        {
          "internalType": "address",
          "name": "operator",
          "type": "address"
        },
        {
          "internalType": "bool",
          "name": "approved",
          "type": "bool"
        }
      ],
      "name": "setApprovalForAll",
      "outputs": [],
      "stateMutability": "nonpayable",
      "type": "function"
    },
    {
      "inputs": [
        {
          "internalType": "string",
          "name": "baseURI",
          "type": "string"
        }
      ],
      "name": "setBaseURI",
      "outputs": [],
      "stateMutability": "nonpayable",
      "type": "function"
    },
    {
      "inputs": [
        {
          "internalType": "enum NFTCollection.MintPhase",
          "name": "phase",
          "type": "uint8"
        }
      ],
      "name": "setPhase",
      "outputs": [],
      "stateMutability": "nonpayable",
      "type": "function"
    },
    {
      "inputs": [
        {
          "internalType": "address",
          "name": "_signer",
          "type": "address"
        }
      ],
      "name": "setSigner",
      "outputs": [],
      "stateMutability": "nonpayable",
      "type": "function"
    },
    {
      "inputs": [],
      "name": "signer",
      "outputs": [
        {
          "internalType": "address",
          "name": "",
          "type": "address"
        }
      ],
      "stateMutability": "view",
      "type": "function"
    },
    {
      "inputs": [
        {
          "internalType": "bytes4",
          "name": "interfaceId",
          "type": "bytes4"
        }
      ],
      "name": "supportsInterface",
      "outputs": [
        {
          "internalType": "bool",
          "name": "",
          "type": "bool"
        }
      ],
      "stateMutability": "view",
      "type": "function"
    },
    {
      "inputs": [],
      "name": "symbol",
      "outputs": [
        {
          "internalType": "string",
          "name": "",
          "type": "string"
        }
      ],
      "stateMutability": "view",
      "type": "function"
    },
    {
      "inputs": [
        {
          "internalType": "uint256",
          "name": "tokenId",
          "type": "uint256"
        }
      ],
      "name": "tokenURI",
      "outputs": [
        {
          "internalType": "string",
          "name": "",
          "type": "string"
        }
      ],
      "stateMutability": "view",
      "type": "function"
    },
    {
      "inputs": [],
      "name": "totalSupply",
      "outputs": [
        {
          "internalType": "uint256",
          "name": "",
          "type": "uint256"
        }
      ],
      "stateMutability": "view",
      "type": "function"
    },
    {
      "inputs": [
        {
          "internalType": "address",
          "name": "from",
          "type": "address"
        },
        {
          "internalType": "address",
          "name": "to",
          "type": "address"
        },
        {
          "internalType": "uint256",
          "name": "tokenId",
          "type": "uint256"
        }
      ],
      "name": "transferFrom",
      "outputs": [],
      "stateMutability": "nonpayable",
      "type": "function"
    },
    {
      "inputs": [
        {
          "internalType": "address",
          "name": "newOwner",
          "type": "address"
        }
      ],
      "name": "transferOwnership",
      "outputs": [],
      "stateMutability": "nonpayable",
      "type": "function"
    },
    {
      "inputs": [
        {
          "internalType": "bytes",
          "name": "signature",
          "type": "bytes"
        },
        {
          "internalType": "string",
          "name": "metadataURI",
          "type": "string"
        }
      ],
      "name": "whitelistMint",
      "outputs": [],
      "stateMutability": "nonpayable",
      "type": "function"
    },
    {
      "inputs": [],
      "name": "withdrawUSDC",
      "outputs": [],
      "stateMutability": "nonpayable",
      "type": "function"
    }
  ],
  "bytecode": "0x6101806040523480156200001257600080fd5b5060405162002b1738038062002b178339810160408190526200003591620003a0565b6040518060400160405280600d81526020016c27232a21b7b63632b1ba34b7b760991b815250604051806040016040528060018152602001603160f81b8152503360405180604001604052806009815260200168437573744f4d656f7760b81b815250604051806040016040528060048152602001634d454f5760e01b8152508160009081620000c691906200047d565b506001620000d582826200047d565b5050506001600160a01b0381166200010857604051631e4fbdf760e01b8152600060048201526024015b60405180910390fd5b6200011381620002b5565b506200012182600862000307565b610120526200013281600962000307565b61014052815160208084019190912060e052815190820120610100524660a052620001c060e05161010051604080517f8b73c3c69bb8fe3d512ecc4cf759cc79239f7b179b0ffacaa9a75d522b39400f60208201529081019290925260608201524660808201523060a082015260009060c00160405160208183030381529060405280519060200120905090565b60805250503060c0526001600160a01b038216620002215760405162461bcd60e51b815260206004820152601660248201527f496e76616c6964207369676e65722061646472657373000000000000000000006044820152606401620000ff565b6001600160a01b038116620002795760405162461bcd60e51b815260206004820152601460248201527f496e76616c6964205553444320616464726573730000000000000000000000006044820152606401620000ff565b600a80546001600160a01b0392831661016052929091166101000260ff19166001600160a81b03199092169190911790556001600b55620005be565b600780546001600160a01b038381166001600160a01b0319831681179093556040519116919082907f8be0079c531659141344cd1fd0a4f28419497f9722a3daafe3b4186f6b6457e090600090a35050565b600060208351101562000327576200031f8362000340565b90506200033a565b816200033484826200047d565b5060ff90505b92915050565b600080829050601f815111156200036e578260405163305a27a960e01b8152600401620000ff919062000549565b80516200037b8262000599565b179392505050565b80516001600160a01b03811681146200039b57600080fd5b919050565b60008060408385031215620003b457600080fd5b620003bf8362000383565b9150620003cf6020840162000383565b90509250929050565b634e487b7160e01b600052604160045260246000fd5b600181811c908216806200040357607f821691505b6020821081036200042457634e487b7160e01b600052602260045260246000fd5b50919050565b601f8211156200047857600081815260208120601f850160051c81016020861015620004535750805b601f850160051c820191505b8181101562000474578281556001016200045f565b5050505b505050565b81516001600160401b03811115620004995762000499620003d8565b620004b181620004aa8454620003ee565b846200042a565b602080601f831160018114620004e95760008415620004d05750858301515b600019600386901b1c1916600185901b17855562000474565b600085815260208120601f198616915b828110156200051a57888601518255948401946001909101908401620004f9565b5085821015620005395787850151600019600388901b60f8161c191681555b5050505050600190811b01905550565b600060208083528351808285015260005b8181101562000578578581018301518582016040015282016200055a565b506000604082860101526040601f19601f8301168501019250505092915050565b80516020808301519190811015620004245760001960209190910360031b1b16919050565b60805160a05160c05160e051610100516101205161014051610160516124de620006396000396000818161038701528181610a4201528181610c3e0152610cfb015260006110c201526000611095015260006117b60152600061178e015260006116e9015260006117130152600061173d01526124de6000f3fe608060405234801561001057600080fd5b50600436106101da5760003560e01c80637ecebe0011610104578063b3d7acf9116100a2578063c87b56dd11610071578063c87b56dd1461042b578063d8fc063d1461043e578063e985e9c514610446578063f2fde38b1461045957600080fd5b8063b3d7acf9146103e8578063b88d4fde146103fb578063c002d23d1461040e578063c03afb591461041857600080fd5b80638b6adcca116100de5780638b6adcca146103a95780638da5cb5b146103bc57806395d89b41146103cd578063a22cb465146103d557600080fd5b80637ecebe001461034757806384b0196e1461036757806389a302711461038257600080fd5b806323b872dd1161017c5780636352211e1161014b5780636352211e146103065780636c19e7831461031957806370a082311461032c578063715018a61461033f57600080fd5b806323b872dd146102a45780632d0335ab146102b757806342842e0e146102e057806355f804b3146102f357600080fd5b8063081812fc116101b8578063081812fc14610236578063095ea7b31461026157806318160ddd14610276578063238ac9331461028c57600080fd5b806301ffc9a7146101df578063055ad42e1461020757806306fdde0314610221575b600080fd5b6101f26101ed366004611d1b565b61046c565b60405190151581526020015b60405180910390f35b600a546102149060ff1681565b6040516101fe9190611d4e565b61022961047d565b6040516101fe9190611dc6565b610249610244366004611dd9565b61050f565b6040516001600160a01b0390911681526020016101fe565b61027461026f366004611e0e565b610538565b005b61027e610547565b6040519081526020016101fe565b600a546102499061010090046001600160a01b031681565b6102746102b2366004611e38565b61055d565b61027e6102c5366004611e74565b6001600160a01b03166000908152600d602052604090205490565b6102746102ee366004611e38565b6105ed565b610274610301366004611ed8565b61060d565b610249610314366004611dd9565b610622565b610274610327366004611e74565b61062d565b61027e61033a366004611e74565b6106d6565b61027461071e565b61027e610355366004611e74565b600d6020526000908152604090205481565b61036f610732565b6040516101fe9796959493929190611f1a565b6102497f000000000000000000000000000000000000000000000000000000000000000081565b6102746103b7366004611fb0565b610778565b6007546001600160a01b0316610249565b6102296109a8565b6102746103e336600461202a565b6109b7565b6102746103f6366004611ed8565b6109c2565b610274610409366004612077565b610b95565b61027e620f424081565b610274610426366004612153565b610bad565b610229610439366004611dd9565b610c13565b610274610c1e565b6101f2610454366004612174565b610e3f565b610274610467366004611e74565b610e6d565b600061047782610eab565b92915050565b60606000805461048c906121a7565b80601f01602080910402602001604051908101604052809291908181526020018280546104b8906121a7565b80156105055780601f106104da57610100808354040283529160200191610505565b820191906000526020600020905b8154815290600101906020018083116104e857829003601f168201915b5050505050905090565b600061051a82610ed0565b506000828152600460205260409020546001600160a01b0316610477565b610543828233610f09565b5050565b60006001600b5461055891906121f7565b905090565b6001600160a01b03821661058c57604051633250574960e11b8152600060048201526024015b60405180910390fd5b6000610599838333610f16565b9050836001600160a01b0316816001600160a01b0316146105e7576040516364283d7b60e01b81526001600160a01b0380861660048301526024820184905282166044820152606401610583565b50505050565b61060883838360405180602001604052806000815250610b95565b505050565b61061561100f565b600c610608828483612250565b600061047782610ed0565b61063561100f565b6001600160a01b0381166106845760405162461bcd60e51b8152602060048201526016602482015275496e76616c6964207369676e6572206164647265737360501b6044820152606401610583565b600a8054610100600160a81b0319166101006001600160a01b038416908102919091179091556040517f5553331329228fbd4123164423717a4a7539f6dfa1c3279a923b98fd681a6c7390600090a250565b60006001600160a01b038216610702576040516322718ad960e21b815260006004820152602401610583565b506001600160a01b031660009081526003602052604090205490565b61072661100f565b610730600061103c565b565b60006060806000806000606061074661108e565b61074e6110bb565b60408051600080825260208201909252600f60f81b9b939a50919850469750309650945092509050565b6001600a5460ff16600281111561079157610791611d38565b146107d75760405162461bcd60e51b81526020600482015260166024820152754e6f7420696e2077686974656c69737420706861736560501b6044820152606401610583565b336000818152600d602090815260408083205481517f2525e022ad0f361a5e97980fac265e4b7d354f0b574b874067a2b54ddfa768119381019390935290820193909352606081018390526080016040516020818303038152906040528051906020012090506000610848826110e8565b9050600061088e88888080601f01602080910402602001604051908101604052809392919081815260200183838082843760009201919091525086939250506111159050565b600a549091506001600160a01b0380831661010090920416146108e75760405162461bcd60e51b8152602060048201526011602482015270496e76616c6964207369676e617475726560781b6044820152606401610583565b336000908152600d6020526040812080549161090283612310565b9091555050600b80546000918261091883612310565b919050559050610928338261113f565b6109688188888080601f01602080910402602001604051908101604052809392919081815260200183838082843760009201919091525061115992505050565b60405181815233907fce77e469b386be007f957632f6f65216f2e74c5daa303aff682e8296f628d0109060200160405180910390a2505050505050505050565b60606001805461048c906121a7565b6105433383836111a9565b6002600a5460ff1660028111156109db576109db611d38565b14610a1e5760405162461bcd60e51b81526020600482015260136024820152724e6f7420696e207075626c696320706861736560681b6044820152606401610583565b6040516323b872dd60e01b8152336004820152306024820152620f424060448201527f00000000000000000000000000000000000000000000000000000000000000006001600160a01b0316906323b872dd906064016020604051808303816000875af1158015610a93573d6000803e3d6000fd5b505050506040513d601f19601f82011682018060405250810190610ab79190612329565b610afa5760405162461bcd60e51b81526020600482015260146024820152731554d110c81d1c985b9cd9995c8819985a5b195960621b6044820152606401610583565b600b805460009182610b0b83612310565b919050559050610b1b338261113f565b610b5b8184848080601f01602080910402602001604051908101604052809392919081815260200183838082843760009201919091525061115992505050565b60405181815233907fab9980fb1d2916bce9017edd1be458e3f56d0899b3367cb3a8be97483fbe069b9060200160405180910390a2505050565b610ba084848461055d565b6105e73385858585611248565b610bb561100f565b600a805482919060ff19166001836002811115610bd457610bd4611d38565b02179055507fa6dcc92f45df25789d5639b7a0c97ba1edf3bb1c0b5dd3376fd96a0db87c464281604051610c089190611d4e565b60405180910390a150565b606061047782611373565b610c2661100f565b6040516370a0823160e01b81523060048201526000907f00000000000000000000000000000000000000000000000000000000000000006001600160a01b0316906370a0823190602401602060405180830381865afa158015610c8d573d6000803e3d6000fd5b505050506040513d601f19601f82011682018060405250810190610cb19190612346565b905060008111610cf95760405162461bcd60e51b81526020600482015260136024820152724e6f205553444320746f20776974686472617760681b6044820152606401610583565b7f00000000000000000000000000000000000000000000000000000000000000006001600160a01b031663a9059cbb610d3a6007546001600160a01b031690565b6040516001600160e01b031960e084901b1681526001600160a01b039091166004820152602481018490526044016020604051808303816000875af1158015610d87573d6000803e3d6000fd5b505050506040513d601f19601f82011682018060405250810190610dab9190612329565b610dee5760405162461bcd60e51b81526020600482015260146024820152731554d110c81d1c985b9cd9995c8819985a5b195960621b6044820152606401610583565b6007546001600160a01b03166001600160a01b03167f2aa7fb97600ea702b454359fc3d02ae9fa48367e7155505d38cee896e5b5aae782604051610e3491815260200190565b60405180910390a250565b6001600160a01b03918216600090815260056020908152604080832093909416825291909152205460ff1690565b610e7561100f565b6001600160a01b038116610e9f57604051631e4fbdf760e01b815260006004820152602401610583565b610ea88161103c565b50565b60006001600160e01b03198216632483248360e11b1480610477575061047782611477565b6000818152600260205260408120546001600160a01b03168061047757604051637e27328960e01b815260048101849052602401610583565b61060883838360016114c7565b6000828152600260205260408120546001600160a01b0390811690831615610f4357610f438184866115cd565b6001600160a01b03811615610f8157610f606000856000806114c7565b6001600160a01b038116600090815260036020526040902080546000190190555b6001600160a01b03851615610fb0576001600160a01b0385166000908152600360205260409020805460010190555b60008481526002602052604080822080546001600160a01b0319166001600160a01b0389811691821790925591518793918516917fddf252ad1be2c89b69c2b068fc378daa952ba7f163c4a11628f55a4df523b3ef91a4949350505050565b6007546001600160a01b031633146107305760405163118cdaa760e01b8152336004820152602401610583565b600780546001600160a01b038381166001600160a01b0319831681179093556040519116919082907f8be0079c531659141344cd1fd0a4f28419497f9722a3daafe3b4186f6b6457e090600090a35050565b60606105587f00000000000000000000000000000000000000000000000000000000000000006008611631565b60606105587f00000000000000000000000000000000000000000000000000000000000000006009611631565b60006104776110f56116dc565b8360405161190160f01b8152600281019290925260228201526042902090565b6000806000806111258686611807565b9250925092506111358282611854565b5090949350505050565b61054382826040518060200160405280600081525061190d565b6000828152600660205260409020611171828261235f565b506040518281527ff8e1a15aba9398e019f0b49df1a4fde98ee17ae345cb5f6b5e2c27f5033e8ce79060200160405180910390a15050565b6001600160a01b0382166111db57604051630b61174360e31b81526001600160a01b0383166004820152602401610583565b6001600160a01b03838116600081815260056020908152604080832094871680845294825291829020805460ff191686151590811790915591519182527f17307eab39ab6107e8899845ad3d59bd9653f200f220920489ca2b5937696c31910160405180910390a3505050565b6001600160a01b0383163b1561136c57604051630a85bd0160e11b81526001600160a01b0384169063150b7a029061128a90889088908790879060040161241f565b6020604051808303816000875af19250505080156112c5575060408051601f3d908101601f191682019092526112c29181019061245c565b60015b61132e573d8080156112f3576040519150601f19603f3d011682016040523d82523d6000602084013e6112f8565b606091505b50805160000361132657604051633250574960e11b81526001600160a01b0385166004820152602401610583565b805160208201fd5b6001600160e01b03198116630a85bd0160e11b1461136a57604051633250574960e11b81526001600160a01b0385166004820152602401610583565b505b5050505050565b606061137e82610ed0565b5060008281526006602052604081208054611398906121a7565b80601f01602080910402602001604051908101604052809291908181526020018280546113c4906121a7565b80156114115780601f106113e657610100808354040283529160200191611411565b820191906000526020600020905b8154815290600101906020018083116113f457829003601f168201915b505050505090506000611422611925565b90508051600003611434575092915050565b81511561146657808260405160200161144e929190612479565b60405160208183030381529060405292505050919050565b61146f84611934565b949350505050565b60006001600160e01b031982166380ac58cd60e01b14806114a857506001600160e01b03198216635b5e139f60e01b145b8061047757506301ffc9a760e01b6001600160e01b0319831614610477565b80806114db57506001600160a01b03821615155b1561159d5760006114eb84610ed0565b90506001600160a01b038316158015906115175750826001600160a01b0316816001600160a01b031614155b801561152a57506115288184610e3f565b155b156115535760405163a9fbf51f60e01b81526001600160a01b0384166004820152602401610583565b811561159b5783856001600160a01b0316826001600160a01b03167f8c5be1e5ebec7d5bd14f71427d1e84f3dd0314c0f7b2291e5b200ac8c7c3b92560405160405180910390a45b505b5050600090815260046020526040902080546001600160a01b0319166001600160a01b0392909216919091179055565b6115d883838361199c565b610608576001600160a01b03831661160657604051637e27328960e01b815260048101829052602401610583565b60405163177e802f60e01b81526001600160a01b038316600482015260248101829052604401610583565b606060ff831461164b57611644836119ff565b9050610477565b818054611657906121a7565b80601f0160208091040260200160405190810160405280929190818152602001828054611683906121a7565b80156116d05780601f106116a5576101008083540402835291602001916116d0565b820191906000526020600020905b8154815290600101906020018083116116b357829003601f168201915b50505050509050610477565b6000306001600160a01b037f00000000000000000000000000000000000000000000000000000000000000001614801561173557507f000000000000000000000000000000000000000000000000000000000000000046145b1561175f57507f000000000000000000000000000000000000000000000000000000000000000090565b610558604080517f8b73c3c69bb8fe3d512ecc4cf759cc79239f7b179b0ffacaa9a75d522b39400f60208201527f0000000000000000000000000000000000000000000000000000000000000000918101919091527f000000000000000000000000000000000000000000000000000000000000000060608201524660808201523060a082015260009060c00160405160208183030381529060405280519060200120905090565b600080600083516041036118415760208401516040850151606086015160001a61183388828585611a3e565b95509550955050505061184d565b50508151600091506002905b9250925092565b600082600381111561186857611868611d38565b03611871575050565b600182600381111561188557611885611d38565b036118a35760405163f645eedf60e01b815260040160405180910390fd5b60028260038111156118b7576118b7611d38565b036118d85760405163fce698f760e01b815260048101829052602401610583565b60038260038111156118ec576118ec611d38565b03610543576040516335e2f38360e21b815260048101829052602401610583565b6119178383611b0d565b610608336000858585611248565b6060600c805461048c906121a7565b606061193f82610ed0565b50600061194a611925565b9050600081511161196a5760405180602001604052806000815250611995565b8061197484611b72565b604051602001611985929190612479565b6040516020818303038152906040525b9392505050565b60006001600160a01b0383161580159061146f5750826001600160a01b0316846001600160a01b031614806119d657506119d68484610e3f565b8061146f5750506000908152600460205260409020546001600160a01b03908116911614919050565b60606000611a0c83611c05565b604080516020808252818301909252919250600091906020820181803683375050509182525060208101929092525090565b600080807f7fffffffffffffffffffffffffffffff5d576e7357a4501ddfe92f46681b20a0841115611a795750600091506003905082611b03565b604080516000808252602082018084528a905260ff891692820192909252606081018790526080810186905260019060a0016020604051602081039080840390855afa158015611acd573d6000803e3d6000fd5b5050604051601f1901519150506001600160a01b038116611af957506000925060019150829050611b03565b9250600091508190505b9450945094915050565b6001600160a01b038216611b3757604051633250574960e11b815260006004820152602401610583565b6000611b4583836000610f16565b90506001600160a01b03811615610608576040516339e3563760e11b815260006004820152602401610583565b60606000611b7f83611c2d565b600101905060008167ffffffffffffffff811115611b9f57611b9f612061565b6040519080825280601f01601f191660200182016040528015611bc9576020820181803683370190505b5090508181016020015b600019016f181899199a1a9b1b9c1cb0b131b232b360811b600a86061a8153600a8504945084611bd357509392505050565b600060ff8216601f81111561047757604051632cd44ac360e21b815260040160405180910390fd5b60008072184f03e93ff9f4daa797ed6e38ed64bf6a1f0160401b8310611c6c5772184f03e93ff9f4daa797ed6e38ed64bf6a1f0160401b830492506040015b6d04ee2d6d415b85acef81000000008310611c98576d04ee2d6d415b85acef8100000000830492506020015b662386f26fc100008310611cb657662386f26fc10000830492506010015b6305f5e1008310611cce576305f5e100830492506008015b6127108310611ce257612710830492506004015b60648310611cf4576064830492506002015b600a83106104775760010192915050565b6001600160e01b031981168114610ea857600080fd5b600060208284031215611d2d57600080fd5b813561199581611d05565b634e487b7160e01b600052602160045260246000fd5b6020810160038310611d7057634e487b7160e01b600052602160045260246000fd5b91905290565b60005b83811015611d91578181015183820152602001611d79565b50506000910152565b60008151808452611db2816020860160208601611d76565b601f01601f19169290920160200192915050565b6020815260006119956020830184611d9a565b600060208284031215611deb57600080fd5b5035919050565b80356001600160a01b0381168114611e0957600080fd5b919050565b60008060408385031215611e2157600080fd5b611e2a83611df2565b946020939093013593505050565b600080600060608486031215611e4d57600080fd5b611e5684611df2565b9250611e6460208501611df2565b9150604084013590509250925092565b600060208284031215611e8657600080fd5b61199582611df2565b60008083601f840112611ea157600080fd5b50813567ffffffffffffffff811115611eb957600080fd5b602083019150836020828501011115611ed157600080fd5b9250929050565b60008060208385031215611eeb57600080fd5b823567ffffffffffffffff811115611f0257600080fd5b611f0e85828601611e8f565b90969095509350505050565b60ff60f81b881681526000602060e081840152611f3a60e084018a611d9a565b8381036040850152611f4c818a611d9a565b606085018990526001600160a01b038816608086015260a0850187905284810360c0860152855180825283870192509083019060005b81811015611f9e57835183529284019291840191600101611f82565b50909c9b505050505050505050505050565b60008060008060408587031215611fc657600080fd5b843567ffffffffffffffff80821115611fde57600080fd5b611fea88838901611e8f565b9096509450602087013591508082111561200357600080fd5b5061201087828801611e8f565b95989497509550505050565b8015158114610ea857600080fd5b6000806040838503121561203d57600080fd5b61204683611df2565b915060208301356120568161201c565b809150509250929050565b634e487b7160e01b600052604160045260246000fd5b6000806000806080858703121561208d57600080fd5b61209685611df2565b93506120a460208601611df2565b925060408501359150606085013567ffffffffffffffff808211156120c857600080fd5b818701915087601f8301126120dc57600080fd5b8135818111156120ee576120ee612061565b604051601f8201601f19908116603f0116810190838211818310171561211657612116612061565b816040528281528a602084870101111561212f57600080fd5b82602086016020830137600060208483010152809550505050505092959194509250565b60006020828403121561216557600080fd5b81356003811061199557600080fd5b6000806040838503121561218757600080fd5b61219083611df2565b915061219e60208401611df2565b90509250929050565b600181811c908216806121bb57607f821691505b6020821081036121db57634e487b7160e01b600052602260045260246000fd5b50919050565b634e487b7160e01b600052601160045260246000fd5b81810381811115610477576104776121e1565b601f82111561060857600081815260208120601f850160051c810160208610156122315750805b601f850160051c820191505b8181101561136a5782815560010161223d565b67ffffffffffffffff83111561226857612268612061565b61227c8361227683546121a7565b8361220a565b6000601f8411600181146122b057600085156122985750838201355b600019600387901b1c1916600186901b17835561136c565b600083815260209020601f19861690835b828110156122e157868501358255602094850194600190920191016122c1565b50868210156122fe5760001960f88860031b161c19848701351681555b505060018560011b0183555050505050565b600060018201612322576123226121e1565b5060010190565b60006020828403121561233b57600080fd5b81516119958161201c565b60006020828403121561235857600080fd5b5051919050565b815167ffffffffffffffff81111561237957612379612061565b61238d8161238784546121a7565b8461220a565b602080601f8311600181146123c257600084156123aa5750858301515b600019600386901b1c1916600185901b17855561136a565b600085815260208120601f198616915b828110156123f1578886015182559484019460019091019084016123d2565b508582101561240f5787850151600019600388901b60f8161c191681555b5050505050600190811b01905550565b6001600160a01b038581168252841660208201526040810183905260806060820181905260009061245290830184611d9a565b9695505050505050565b60006020828403121561246e57600080fd5b815161199581611d05565b6000835161248b818460208801611d76565b83519083019061249f818360208801611d76565b0194935050505056fea26469706673582212205ea898ff04d4a5fdef71d131d4c36a5ac70e953e096cc9bf928adfbbf8ae24a364736f6c63430008140033",
  "linkReferences": {},
  "deployedLinkReferences": {}
}